:100000000C942A000C9434000C9434000C943400AA
:100010000C9434000C9434000C9434000C94340090
:100020000C9434000C9434000C9434000C94340080
:100030000C9434000C9434000C9434000C94340070
:100040000C9434000C9434000C9434000C94340060
:100050000C94340011241FBECFE5D8E0DEBFCDBF25
:100060000E9436000C9440000C94000082E08ABB91
:1000700092E089B3813011F49BBBFBCF1BBAF9CF5F
:04008000F894FFCF22
:00000001FF
