:100000000C942A000C9434000C9434000C943400AA
:100010000C9434000C9434000C9434000C94340090
:100020000C9434000C9434000C9434000C94340080
:100030000C9434000C9434000C9434000C94340070
:100040000C9434000C9434000C9434000C94340060
:100050000C94340011241FBECFE5D4E0DEBFCDBF29
:100060000E9436000C9465000C9400008FEF8ABB50
:1000700031E022E094E088E03BBB4FE956E861E0E4
:10008000415050406040E1F700C000002BBB4FE9F9
:1000900056E861E0415050406040E1F700C0000088
:1000A0009BBB4FE956E861E0415050406040E1F7AA
:1000B00000C000008BBB4FE956E861E04150504062
:0E00C0006040E1F700C00000D7CFF894FFCFFA
:00000001FF
