:100000000C942A000C943C000C943C000C943C0092
:100010000C943C000C943C000C943C000C943C0070
:100020000C943C000C943C000C943C000C943C0060
:100030000C943C000C943C000C943C000C943C0050
:100040000C943C000C943C000C943C000C943C0040
:100050000C943C0011241FBECFE5D8E0DEBFCDBF1D
:1000600020E0A0E6B0E001C01D92A436B207E1F79F
:100070000E9423010C94CF020C9400002BB330E0BB
:10008000082E02C0359527950A94E2F720FD14C08A
:100090002BB330E0062E02C0359527950A94E2F77F
:1000A00020FD0AC02BB330E0042E02C03595279501
:1000B0000A94E2F720FD5AC02BB330E0082E02C0AC
:1000C000359527950A94E2F720FD14C02BB330E054
:1000D000062E02C0359527950A94E2F720FF0AC044
:1000E0002BB330E0042E02C0359527950A94E2F731
:1000F00020FD3EC02BB330E0082E02C03595279579
:100100000A94E2F720FF14C02BB330E0062E02C0A1
:10011000359527950A94E2F720FD0AC02BB330E00D
:10012000042E02C0359527950A94E2F720FF22C0DD
:100130002BB330E0F90102C0F595E7958A95E2F717
:10014000E0FF1AC08BB390E002C0959587956A9541
:10015000E2F780FF13C08BB390E002C095958795BE
:100160004A95E2F7F1E08F27817008958FEF0895A7
:100170008FEF089581E0089580E0089580E008956C
:10018000863419F40E94C30113C0823419F40E940A
:10019000F8010EC0823519F40E942D0209C08C347A
:1001A00019F40E94640204C0833511F40E948A018C
:1001B000CC990BC00E9464022FEF84E39CE0215095
:1001C00080409040E1F700C00000CE990BC00E9433
:1001D0002D022FEF84E39CE0215080409040E1F716
:1001E00000C00000089546E065E084E00E943E0003
:1001F000811109C068EC70E088EC90E00E949B02DD
:100200000E94C301089546E065E084E00E943E003C
:100210008F3F49F464E670E084E690E00E949B0220
:100220000E946402089546E065E084E00E943E007A
:10023000813041F464E670E084E690E00E949B0225
:100240000E942D0208950E94C10223E030E042E0A6
:1002500050E061E070E080E090E00E9456016AEFBB
:1002600070E08AEF90E00E949B02C7E5D3E50E9410
:10027000CB02873521F00E94CB02853521F40E9404
:10028000CB02C82F03C00E94CB02D82FC53519F46A
:100290000E94F300ECCF8C2F8D7F853719F40E94DC
:1002A0008A01E5CF8D2F0E94C000E1CF80936000CE
:1002B000609362004093630020936100309160007E
:1002C00020916200409163007091610064B381E00D
:1002D00090E0FC0102C0EE0FFF1F3A95E2F7DC014F
:1002E00002C0AA0FBB1F2A95E2F79D012E2B3F2BC0
:1002F000FC0102C0EE0FFF1F4A95E2F72E2B3F2BA9
:1003000002C0880F991F7A95E2F7822B932B862BD8
:1003100084BB08952091600045B381E090E0BC016A
:1003200002C0660F771F2A95E2F79B012095309552
:10033000242325BB2091620045B3BC0102C0660F97
:10034000771F2A95E2F79B0120953095242325BB42
:100350002091610045B3BC0102C0660F771F2A954A
:10036000E2F79B0120953095242325BB3091610055
:1003700025B302C0880F991F3A95E2F780959095B2
:10038000822385BB08952091600045B381E090E011
:10039000BC0102C0660F771F2A95E2F79B01242B50
:1003A00025BB2091620045B3BC0102C0660F771FD8
:1003B0002A95E2F79B0120953095242325BB2091B7
:1003C000630045B3BC0102C0660F771F2A95E2F7B0
:1003D0009B01242B25BB3091610025B302C0880FFF
:1003E000991F3A95E2F780959095822385BB0895F1
:1003F0002091620045B381E090E0BC0102C0660F2D
:10040000771F2A95E2F79B01242B25BB20916000E2
:1004100045B3BC0102C0660F771F2A95E2F79B0126
:1004200020953095242325BB2091610045B3BC0164
:1004300002C0660F771F2A95E2F79B01242B25BB8C
:100440003091630025B302C0880F991F3A95E2F7F7
:1004500080959095822385BB08952091620045B3D5
:1004600081E090E0BC0102C0660F771F2A95E2F799
:100470009B01242B25BB2091600045B3BC0102C029
:10048000660F771F2A95E2F79B012095309524236C
:1004900025BB2091610045B3BC0102C0660F771FE8
:1004A0002A95E2F79B0120953095242325BB3091B6
:1004B000630025B302C0880F991F3A95E2F7809533
:1004C0009095822385BB08952091600045B381E01B
:1004D00090E0BC0102C0660F771F2A95E2F79B01EE
:1004E00020953095242325BB2091620045B3BC01A3
:1004F00002C0660F771F2A95E2F79B012095309581
:10050000242325BB2091630045B3BC0102C0660FC4
:10051000771F2A95E2F79B01242B25BB30916100C0
:1005200025B302C0880F991F3A95E2F78095909500
:10053000822385BB0895CF93C62F682F81E00E9448
:10054000A7026C2F82E00E94A702CF91089581300C
:1005500059F48D9A8FB581688FBD8EB58A608EBD36
:1005600070E07BBD6ABD0895823051F48C9A8FB5DE
:1005700081628FBD8EB58A608EBD70E079BD68BD29
:10058000089587E689B910BC8AB188618AB980B5B7
:10059000866080BD08955F9BFECF8CB10895F8946E
:0205A000FFCF8B
:00000001FF
