:100000000C942A000C9434000C9434000C943400AA
:100010000C9434000C9434000C9434000C94340090
:100020000C9434000C9434000C9434000C94340080
:100030000C9434000C9434000C9434000C94340070
:100040000C9434000C9434000C9434000C94340060
:100050000C94340011241FBECFE5D4E0DEBFCDBF29
:100060000E9436000C945A000C94000087E08ABB72
:10007000D89A2FE986E891E0215080409040E1F73E
:1000800000C00000D898D99A2FE986E891E0215065
:1000900080409040E1F700C00000D998DA9A2FE93B
:1000A00086E891E0215080409040E1F700C00000D8
:0800B000DA98DECFF894FFCFCF
:00000001FF
