:100000000C942A000C9434000C9434000C943400AA
:100010000C9434000C9434000C9434000C94340090
:100020000C9434000C9434000C9434000C94340080
:100030000C9434000C9434000C9434000C94340070
:100040000C9434000C9434000C9434000C94340060
:100050000C94340011241FBECFE5D8E0DEBFCDBF25
:100060000E9436000C9459000C9400006FE781E068
:100070000E943F006FE782E00E943F00F7CF81308F
:1000800059F48D9A8FB581688FBD8EB58A608EBD0B
:1000900070E07BBD6ABD0895823051F48C9A8FB5B3
:1000A00081628FBD8EB58A608EBD70E079BD68BDFE
:0600B0000895F894FFCF53
:00000001FF
