:100000000C942A000C9434000C9434000C943400AA
:100010000C9434000C9434000C9434000C94340090
:100020000C9434000C9434000C9434000C94340080
:100030000C9434000C9434000C9434000C94340070
:100040000C9434000C9434000C9434000C94340060
:100050000C94340011241FBECFE5D8E0DEBFCDBF25
:100060000E9436000C943F000C9400001ABA8FEFE7
:100070008BBB84BB89B3880F880F85BBFBCFF894FB
:02008000FFCFB0
:00000001FF
