:100000000C942A000C9456000C9468000C94340054
:100010000C9434000C9434000C9434000C94340090
:100020000C9434000C9434000C9434000C94340080
:100030000C9434000C9434000C9434000C94340070
:100040000C9434000C9434000C9434000C94340060
:100050000C94340011241FBECFE5D8E0DEBFCDBF25
:100060000E9436000C947A000C9400008A988B98B9
:10007000D09AB89ABA9A82B38C6082BB85B78A60EC
:1000800085BF8BB780648BBF8BB780688BBF78943C
:1000900091E08BB389278BBB2FE73AE186E02150B3
:1000A00030408040E1F700C00000F3CF1F920F9274
:1000B0000FB60F9211248F939F9398B381E08927F5
:1000C00088BB9F918F910F900FBE0F901F90189536
:1000D0001F920F920FB60F9211248F939F9398B394
:1000E00084E0892788BB9F918F910F900FBE0F905E
:0800F0001F901895F894FFCF52
:00000001FF
