:100000000C942A000C943C000C943C000C943C0092
:100010000C943C000C943C000C943C000C943C0070
:100020000C943C000C943C000C943C000C943C0060
:100030000C943C000C9497010C943C000C943C00F4
:100040000C943C000C943C000C943C000C943C0040
:100050000C943C0011241FBECFE5D8E0DEBFCDBF1D
:1000600020E0A0E6B0E001C01D92A136B207E1F7A2
:100070000E942C010C94CD010C94000023B330E0BD
:10008000082E02C0359527950A94E2F720FD14C08A
:1000900023B330E0062E02C0359527950A94E2F787
:1000A00020FD0AC023B330E0042E02C03595279509
:1000B0000A94E2F720FD5AC023B330E0082E02C0B4
:1000C000359527950A94E2F720FD14C023B330E05C
:1000D000062E02C0359527950A94E2F720FF0AC044
:1000E00023B330E0042E02C0359527950A94E2F739
:1000F00020FD3EC023B330E0082E02C03595279581
:100100000A94E2F720FF14C023B330E0062E02C0A9
:10011000359527950A94E2F720FD0AC023B330E015
:10012000042E02C0359527950A94E2F720FF22C0DD
:1001300023B330E0F90102C0F595E7958A95E2F71F
:10014000E0FF1AC083B390E002C0959587956A9549
:10015000E2F780FF13C083B390E002C095958795C6
:100160004A95E2F7F1E08F278170089582E00895C3
:1001700082E0089581E0089580E0089580E0089588
:1001800085B341E050E060E070E090E00E94A8019B
:1001900085B343E050E062E070E090E00E94A80187
:1001A000089585B341E060E00E94A60185B343E075
:1001B00062E00E94A601089585B341E060E00E94DC
:1001C000A70185B343E062E00E94A701089585B3CB
:1001D00041E060E00E94A60185B343E062E00E9436
:1001E000A701089585B341E060E00E94A70185B3AF
:1001F00043E062E00E94A6010895CF93C62F682FC6
:1002000081E00E94A9016C2F82E00E94A901CF9198
:10021000089546E065E084E00E943E00823039F4B3
:1002200066E986E90E94FD000E94E700089546E025
:1002300065E084E00E943E00813039F466E986E999
:100240000E94FD000E94F200089568EC88EC0E9474
:10025000FD000E94D100089578940E94C30184B3E8
:10026000836084BB84B38C6084BB60E080E00E94C8
:10027000FD00A498A598A698C7E517E7DCE1809152
:100280006000873531F080916000873719F4C12F05
:1002900001C0C7E580916000803320F0809160004C
:1002A0008A3320F080916000813789F4809160006A
:1002B000813729F46FEF8FEF0E94FD0008C0809115
:1002C00060008D9F802D1124682F0E94FD00C7378C
:1002D00019F40E940901D3CF9C9B02C09D9903C0D1
:1002E0000E94DC00CCCF80916000863419F40E941B
:1002F000D100C5CF80916000823419F40E94DC00E7
:10030000BECF80916000823519F40E94F200B7CF11
:10031000809160008C3419F40E94E700B0CF809186
:100320006000833509F0ABCF0E94C000A8CF1F92B8
:100330000F920FB60F9211248F938CB180936000AF
:100340008F910F900FBE0F901F90189508950895EC
:100350000895813059F48D9A8FB581688FBD8EB51F
:100360008A608EBD70E07BBD6ABD0895823051F415
:100370008C9A8FB581628FBD8EB58A608EBD70E01C
:1003800079BD68BD089582E08BB988E98AB986E8AD
:0E03900080BD10BC8FEC89B90895F894FFCFA2
:00000001FF
