:100000000C942A000C9434000C9434000C943400AA
:100010000C9434000C9434000C9434000C94340090
:100020000C9434000C9434000C9434000C94340080
:100030000C9434000C9434000C9434000C94340070
:100040000C9434000C9434000C9434000C94340060
:100050000C94340011241FBECFE5D8E0DEBFCDBF25
:100060000E9436000C9454000C9400008FEF8ABB61
:1000700070E060E041E050E0872F962F9A01082E53
:1000800002C0220F331F0A94E2F72BBB2FEF34E399
:10009000ECE021503040E040E1F700C00000019664
:0C00A0008830910559F7E8CFF894FFCFA5
:00000001FF
