:100000000C942A000C944C000C9434000C94340092
:100010000C9434000C9434000C9434000C94340090
:100020000C9434000C9434000C9434000C94340080
:100030000C9434000C9434000C9434000C94340070
:100040000C9434000C9434000C9434000C94340060
:100050000C94340011241FBECFE5D8E0DEBFCDBF25
:100060000E9436000C945E000C940000D09AB89A5E
:100070008A98929A85B7826085BF8BB780648BBF60
:10008000789491E08BB389278BBBE7EAF1E631974F
:10009000F1F700C00000F6CF1F920F920FB60F923B
:1000A00011248F939F9398B381E0892788BB9F91F8
:1000B0008F910F900FBE0F901F901895F894FFCF5F
:00000001FF
