:100000000C942A000C9434000C9434000C943400AA
:100010000C9434000C9434000C9434000C94340090
:100020000C9434000C9434000C9434000C94340080
:100030000C9434000C9434000C9434000C94340070
:100040000C9434000C9434000C9434000C94340060
:100050000C94340011241FBECFE5D8E0DEBFCDBF25
:100060000E9448000C9458000C94000087E689B95F
:1000700010BC8AB188618AB980B5866080BD089558
:100080005D9BFECF8CB908955F9BFECF8CB1089528
:100090000E9436000E9444000E9440002FEF83ED32
:1000A00090E3215080409040E1F700C00000F2CF83
:0400B000F894FFCFF2
:00000001FF
