:100000000C942A000C9434000C9434000C943400AA
:100010000C9434000C9434000C9434000C94340090
:100020000C9434000C9434000C9434000C94340080
:100030000C9434000C9434000C9434000C94340070
:100040000C9434000C9434000C9434000C94340060
:100050000C94340011241FBECFE5D8E0DEBFCDBF25
:100060000E9436000C9484000C9400008FB58268C6
:100070008FBD8EB589618EBD8D9A87E893E197BD5E
:1000800086BD86B597B5805D97409BBD8ABD86B518
:1000900097B5885B9B409BBD8ABD2FE38DE093E0C5
:1000A000215080409040E1F700C0000086B597B530
:1000B0008C5A9D409BBD8ABD2FE38DE093E021507B
:1000C00080409040E1F700C0000086B597B58F5999
:1000D0009F409BBD8ABD2FE38DE093E0215080407F
:1000E0009040E1F700C0000086B597B58C5A9D405E
:1000F0009BBD8ABD2FE38DE093E02150804090406E
:0C010000E1F700C00000C3CFF894FFCF6F
:00000001FF
