:100000000C942A000C9434000C9434000C943400AA
:100010000C9434000C9434000C9434000C94340090
:100020000C9434000C9434000C9434000C94340080
:100030000C9434000C9434000C9434000C94340070
:100040000C9434000C9434000C9434000C94340060
:100050000C94340011241FBECFE5D8E0DEBFCDBF25
:100060000E9436000C9468000C94000087E08ABB64
:1000700041E022E034E04BBB5FEB67E279E05150B6
:1000800060407040E1F700C0000083E090E02BBBCF
:100090005FE966E871E0515060407040E1F700C0F0
:1000A00000001BBA5FE966E871E0515060407040A3
:1000B000E1F700C00000019751F73BBB8FEB97E2DF
:1000C00059E0815090405040E1F700C00000D3CF8C
:0400D000F894FFCFD2
:00000001FF
