:100000000C942A000C9434000C9434000C943400AA
:100010000C9434000C9434000C9434000C94340090
:100020000C9434000C9434000C9434000C94340080
:100030000C9434000C9434000C9434000C94340070
:100040000C9434000C9434000C9434000C94340060
:100050000C94340011241FBECFE5D4E0DEBFCDBF29
:100060000E9436000C9459000C9400008FEF8ABB5C
:1000700091E082E09BBB2FE73AE146E0215030401F
:100080004040E1F700C000008BBB2FE73AE146E0BB
:10009000215030404040E1F700C000001BBA2FE77C
:1000A0003AE146E0215030404040E1F700C0000016
:0600B000E1CFF894FFCF40
:00000001FF
