:100000000C942A000C9434000C9434000C943400AA
:100010000C9434000C9434000C9434000C94340090
:100020000C9434000C9434000C9434000C94340080
:100030000C9434000C9434000C9434000C94340070
:100040000C9434000C9434000C9434000C94340060
:100050000C94340011241FBECFE5D4E0DEBFCDBF29
:100060000E9436000C945A000C9400008FE08ABB6A
:1000700021E092E084E02BBB3FED43E954E03150B6
:1000800040405040E1F700C000009BBB3FED43E91A
:1000900054E0315040405040E1F700C000008BBBBD
:1000A0003FED43E954E0315040405040E1F700C09B
:0800B0000000E1CFF894FFCF3E
:00000001FF
