:100000000C942A000C9434000C9434000C943400AA
:100010000C9434000C9434000C9434000C94340090
:100020000C9434000C9434000C9434000C94340080
:100030000C9434000C9434000C9434000C94340070
:100040000C9434000C9434000C9434000C94340060
:100050000C94340011241FBECFE5D8E0DEBFCDBF25
:100060000E9436000C9455000C940000CF93DF934F
:100070001F92CDB7DEB719820E9446008FEF8ABB70
:100080000E945000898389818BBBFACF82E08BB9B3
:1000900088E18AB986E880BD80E189B910BC0895FD
:0E00A0005F9BFECF5F9A8CB10895F894FFCF5E
:00000001FF
