:100000000C942A000C9434000C9434000C943400AA
:100010000C9434000C9434000C9434000C94340090
:100020000C9434000C9434000C9434000C94340080
:100030000C9434000C9434000C9434000C94340070
:100040000C9434000C9434000C9434000C94340060
:100050000C94340011241FBECFE5D8E0DEBFCDBF25
:100060000E9436000C946B000C940000CF93DF9339
:1000700000D0CDB7DEB719821A828FEF8ABB0E94FB
:1000800057000E9466008A83898190E00E94610087
:100090008A818BBB89818F5F89832FEF83ED90E30A
:1000A000215080409040E1F700C00000EACF82E09C
:1000B0008BB988E18AB986E880BD80E189B910BC36
:1000C00008958CB95E9BFECF5E9A08955F9BFECF2C
:0A00D0005F9A8CB10895F894FFCFF9
:00000001FF
